{
  "contractName": "bridgeTwo",
  "abi": [
    {
      "inputs": [
        {
          "internalType": "address",
          "name": "_wallet",
          "type": "address"
        },
        {
          "internalType": "address",
          "name": "_token",
          "type": "address"
        }
      ],
      "stateMutability": "nonpayable",
      "type": "constructor"
    },
    {
      "anonymous": false,
      "inputs": [
        {
          "indexed": true,
          "internalType": "address",
          "name": "to",
          "type": "address"
        },
        {
          "indexed": false,
          "internalType": "uint256",
          "name": "amount",
          "type": "uint256"
        }
      ],
      "name": "SendTokens",
      "type": "event"
    },
    {
      "inputs": [],
      "name": "tokenTwo",
      "outputs": [
        {
          "internalType": "contract IERC20",
          "name": "",
          "type": "address"
        }
      ],
      "stateMutability": "view",
      "type": "function"
    },
    {
      "inputs": [],
      "name": "wallet",
      "outputs": [
        {
          "internalType": "address",
          "name": "",
          "type": "address"
        }
      ],
      "stateMutability": "view",
      "type": "function"
    },
    {
      "inputs": [
        {
          "internalType": "address",
          "name": "_to",
          "type": "address"
        },
        {
          "internalType": "uint256",
          "name": "_amount",
          "type": "uint256"
        }
      ],
      "name": "sendTokens",
      "outputs": [],
      "stateMutability": "nonpayable",
      "type": "function"
    }
  ],
  "bytecode": "0x608060405234801561000f575f80fd5b5060405161086438038061086483398181016040528101906100319190610115565b815f806101000a81548173ffffffffffffffffffffffffffffffffffffffff021916908373ffffffffffffffffffffffffffffffffffffffff1602179055508060015f6101000a81548173ffffffffffffffffffffffffffffffffffffffff021916908373ffffffffffffffffffffffffffffffffffffffff1602179055505050610153565b5f80fd5b5f73ffffffffffffffffffffffffffffffffffffffff82169050919050565b5f6100e4826100bb565b9050919050565b6100f4816100da565b81146100fe575f80fd5b50565b5f8151905061010f816100eb565b92915050565b5f806040838503121561012b5761012a6100b7565b5b5f61013885828601610101565b925050602061014985828601610101565b9150509250929050565b610704806101605f395ff3fe608060405234801561000f575f80fd5b506004361061003f575f3560e01c806305ab421d1461004357806325be124e1461005f578063521eb2731461007d575b5f80fd5b61005d60048036038101906100589190610433565b61009b565b005b61006761035a565b60405161007491906104cc565b60405180910390f35b61008561037f565b60405161009291906104f4565b60405180910390f35b5f8054906101000a900473ffffffffffffffffffffffffffffffffffffffff1673ffffffffffffffffffffffffffffffffffffffff163373ffffffffffffffffffffffffffffffffffffffff16146100f1575f80fd5b8060015f9054906101000a900473ffffffffffffffffffffffffffffffffffffffff1673ffffffffffffffffffffffffffffffffffffffff166370a08231306040518263ffffffff1660e01b815260040161014c91906104f4565b602060405180830381865afa158015610167573d5f803e3d5ffd5b505050506040513d601f19601f8201168201806040525081019061018b9190610521565b10156101cc576040517f08c379a00000000000000000000000000000000000000000000000000000000081526004016101c3906105cc565b60405180910390fd5b60015f9054906101000a900473ffffffffffffffffffffffffffffffffffffffff1673ffffffffffffffffffffffffffffffffffffffff1663095ea7b383836040518363ffffffff1660e01b81526004016102289291906105f9565b6020604051808303815f875af1158015610244573d5f803e3d5ffd5b505050506040513d601f19601f820116820180604052508101906102689190610655565b5060015f9054906101000a900473ffffffffffffffffffffffffffffffffffffffff1673ffffffffffffffffffffffffffffffffffffffff166323b872dd3084846040518463ffffffff1660e01b81526004016102c793929190610680565b6020604051808303815f875af11580156102e3573d5f803e3d5ffd5b505050506040513d601f19601f820116820180604052508101906103079190610655565b508173ffffffffffffffffffffffffffffffffffffffff167f09bd3894cb7ab22415416dac0fecc519855a4b0842f1c9115e562ef557ab577b8260405161034e91906106b5565b60405180910390a25050565b60015f9054906101000a900473ffffffffffffffffffffffffffffffffffffffff1681565b5f8054906101000a900473ffffffffffffffffffffffffffffffffffffffff1681565b5f80fd5b5f73ffffffffffffffffffffffffffffffffffffffff82169050919050565b5f6103cf826103a6565b9050919050565b6103df816103c5565b81146103e9575f80fd5b50565b5f813590506103fa816103d6565b92915050565b5f819050919050565b61041281610400565b811461041c575f80fd5b50565b5f8135905061042d81610409565b92915050565b5f8060408385031215610449576104486103a2565b5b5f610456858286016103ec565b92505060206104678582860161041f565b9150509250929050565b5f819050919050565b5f61049461048f61048a846103a6565b610471565b6103a6565b9050919050565b5f6104a58261047a565b9050919050565b5f6104b68261049b565b9050919050565b6104c6816104ac565b82525050565b5f6020820190506104df5f8301846104bd565b92915050565b6104ee816103c5565b82525050565b5f6020820190506105075f8301846104e5565b92915050565b5f8151905061051b81610409565b92915050565b5f60208284031215610536576105356103a2565b5b5f6105438482850161050d565b91505092915050565b5f82825260208201905092915050565b7f42616c616e6365206f662074686520736d61727420636f6e74726163742069735f8201527f20746f6f206c6f77210000000000000000000000000000000000000000000000602082015250565b5f6105b660298361054c565b91506105c18261055c565b604082019050919050565b5f6020820190508181035f8301526105e3816105aa565b9050919050565b6105f381610400565b82525050565b5f60408201905061060c5f8301856104e5565b61061960208301846105ea565b9392505050565b5f8115159050919050565b61063481610620565b811461063e575f80fd5b50565b5f8151905061064f8161062b565b92915050565b5f6020828403121561066a576106696103a2565b5b5f61067784828501610641565b91505092915050565b5f6060820190506106935f8301866104e5565b6106a060208301856104e5565b6106ad60408301846105ea565b949350505050565b5f6020820190506106c85f8301846105ea565b9291505056fea264697066735822122054a7881917af9ec0605284f3c0b03a65195735fef437c8bd9956076a666ab4d064736f6c63430008150033",
  "immutableReferences": {},
  "source": "//SPDX-License-Identifier: MIT\r\n\r\npragma solidity ^0.8.17;\r\n\r\n// Interfaces\r\ninterface IERC20 {\r\n    function balanceOf(address account) external view returns (uint256);\r\n    function approve(address spender, uint256 amount) external returns (bool);\r\n    function transferFrom(address from, address to, uint256 amount) external returns (bool);\r\n}\r\n\r\ncontract bridgeTwo {\r\n    address public wallet;\r\n    IERC20 public tokenTwo;\r\n\r\n    constructor(address _wallet, address _token) {\r\n        wallet = _wallet;\r\n        tokenTwo = IERC20(_token);\r\n    }\r\n\r\n    event SendTokens(address indexed to, uint256 amount);\r\n\r\n    modifier onlyWallet() {\r\n        require(msg.sender == wallet);\r\n        _;\r\n    }\r\n\r\n    function sendTokens(address _to, uint256 _amount) external onlyWallet {\r\n        require(tokenTwo.balanceOf(address(this)) >= _amount, \"Balance of the smart contract is too low!\");\r\n\r\n        tokenTwo.approve(_to, _amount); // Approve the receiver to use tokens\r\n\r\n        tokenTwo.transferFrom(address(this), _to, _amount); // Send the tokens\r\n\r\n        emit SendTokens(_to, _amount);\r\n    }\r\n}",
  "sourcePath": "E:\\BCDV4028-Assingnment1\\contracts\\bridgeContract_2.sol",
  "compiler": {
    "name": "solc",
    "version": "0.8.21+commit.d9974bed.Emscripten.clang"
  },
  "schemaVersion": "3.4.16",
  "updatedAt": "2023-10-08T23:26:08.722Z",
  "devdoc": {
    "kind": "dev",
    "methods": {},
    "version": 1
  },
  "userdoc": {
    "kind": "user",
    "methods": {},
    "version": 1
  }
}