{
  "contractName": "EthereumBridge",
  "abi": [
    {
      "inputs": [
        {
          "internalType": "address",
          "name": "_token",
          "type": "address"
        }
      ],
      "stateMutability": "nonpayable",
      "type": "constructor"
    },
    {
      "inputs": [],
      "name": "owner",
      "outputs": [
        {
          "internalType": "address",
          "name": "",
          "type": "address"
        }
      ],
      "stateMutability": "view",
      "type": "function"
    },
    {
      "inputs": [],
      "name": "token",
      "outputs": [
        {
          "internalType": "contract ERC20",
          "name": "",
          "type": "address"
        }
      ],
      "stateMutability": "view",
      "type": "function"
    },
    {
      "inputs": [
        {
          "internalType": "uint256",
          "name": "amount",
          "type": "uint256"
        }
      ],
      "name": "deposit",
      "outputs": [],
      "stateMutability": "nonpayable",
      "type": "function"
    },
    {
      "inputs": [
        {
          "internalType": "address",
          "name": "recipient",
          "type": "address"
        },
        {
          "internalType": "uint256",
          "name": "amount",
          "type": "uint256"
        }
      ],
      "name": "withdraw",
      "outputs": [],
      "stateMutability": "nonpayable",
      "type": "function"
    }
  ],
  "bytecode": "0x608060405234801561000f575f80fd5b5060405161081938038061081983398181016040528101906100319190610114565b335f806101000a81548173ffffffffffffffffffffffffffffffffffffffff021916908373ffffffffffffffffffffffffffffffffffffffff1602179055508060015f6101000a81548173ffffffffffffffffffffffffffffffffffffffff021916908373ffffffffffffffffffffffffffffffffffffffff1602179055505061013f565b5f80fd5b5f73ffffffffffffffffffffffffffffffffffffffff82169050919050565b5f6100e3826100ba565b9050919050565b6100f3816100d9565b81146100fd575f80fd5b50565b5f8151905061010e816100ea565b92915050565b5f60208284031215610129576101286100b6565b5b5f61013684828501610100565b91505092915050565b6106cd8061014c5f395ff3fe608060405234801561000f575f80fd5b506004361061004a575f3560e01c80638da5cb5b1461004e578063b6b55f251461006c578063f3fef3a314610088578063fc0c546a146100a4575b5f80fd5b6100566100c2565b6040516100639190610395565b60405180910390f35b610086600480360381019061008191906103e5565b6100e5565b005b6100a2600480360381019061009d919061043a565b6101c5565b005b6100ac610331565b6040516100b991906104d3565b60405180910390f35b5f8054906101000a900473ffffffffffffffffffffffffffffffffffffffff1681565b60015f9054906101000a900473ffffffffffffffffffffffffffffffffffffffff1673ffffffffffffffffffffffffffffffffffffffff166323b872dd3330846040518463ffffffff1660e01b8152600401610143939291906104fb565b6020604051808303815f875af115801561015f573d5f803e3d5ffd5b505050506040513d601f19601f820116820180604052508101906101839190610565565b6101c2576040517f08c379a00000000000000000000000000000000000000000000000000000000081526004016101b9906105ea565b60405180910390fd5b50565b5f8054906101000a900473ffffffffffffffffffffffffffffffffffffffff1673ffffffffffffffffffffffffffffffffffffffff163373ffffffffffffffffffffffffffffffffffffffff1614610252576040517f08c379a000000000000000000000000000000000000000000000000000000000815260040161024990610652565b60405180910390fd5b60015f9054906101000a900473ffffffffffffffffffffffffffffffffffffffff1673ffffffffffffffffffffffffffffffffffffffff1663a9059cbb83836040518363ffffffff1660e01b81526004016102ae929190610670565b6020604051808303815f875af11580156102ca573d5f803e3d5ffd5b505050506040513d601f19601f820116820180604052508101906102ee9190610565565b61032d576040517f08c379a0000000000000000000000000000000000000000000000000000000008152600401610324906105ea565b60405180910390fd5b5050565b60015f9054906101000a900473ffffffffffffffffffffffffffffffffffffffff1681565b5f73ffffffffffffffffffffffffffffffffffffffff82169050919050565b5f61037f82610356565b9050919050565b61038f81610375565b82525050565b5f6020820190506103a85f830184610386565b92915050565b5f80fd5b5f819050919050565b6103c4816103b2565b81146103ce575f80fd5b50565b5f813590506103df816103bb565b92915050565b5f602082840312156103fa576103f96103ae565b5b5f610407848285016103d1565b91505092915050565b61041981610375565b8114610423575f80fd5b50565b5f8135905061043481610410565b92915050565b5f80604083850312156104505761044f6103ae565b5b5f61045d85828601610426565b925050602061046e858286016103d1565b9150509250929050565b5f819050919050565b5f61049b61049661049184610356565b610478565b610356565b9050919050565b5f6104ac82610481565b9050919050565b5f6104bd826104a2565b9050919050565b6104cd816104b3565b82525050565b5f6020820190506104e65f8301846104c4565b92915050565b6104f5816103b2565b82525050565b5f60608201905061050e5f830186610386565b61051b6020830185610386565b61052860408301846104ec565b949350505050565b5f8115159050919050565b61054481610530565b811461054e575f80fd5b50565b5f8151905061055f8161053b565b92915050565b5f6020828403121561057a576105796103ae565b5b5f61058784828501610551565b91505092915050565b5f82825260208201905092915050565b7f5472616e73666572206661696c656400000000000000000000000000000000005f82015250565b5f6105d4600f83610590565b91506105df826105a0565b602082019050919050565b5f6020820190508181035f830152610601816105c8565b9050919050565b7f4f6e6c79206f776e65722063616e2077697468647261770000000000000000005f82015250565b5f61063c601783610590565b915061064782610608565b602082019050919050565b5f6020820190508181035f83015261066981610630565b9050919050565b5f6040820190506106835f830185610386565b61069060208301846104ec565b939250505056fea26469706673582212201537600efa439fc330036e384db4c1e2cfb4b6c8654b2f89d1faf74dd16bdec164736f6c63430008150033",
  "immutableReferences": {},
  "source": "// SPDX-License-Identifier: MIT\r\npragma solidity ^0.8.17;\r\n\r\nimport \"./myERC20.sol\";\r\n\r\ncontract EthereumBridge {\r\n    address public owner;\r\n    ERC20 public token;\r\n\r\n    constructor(address _token) {\r\n        owner = msg.sender;\r\n        token = ERC20(_token);\r\n    }\r\n\r\n    // Deposit tokens from Ethereum to BSC\r\n    function deposit(uint256 amount) public {\r\n        require(token.transferFrom(msg.sender, address(this), amount), \"Transfer failed\");\r\n    }\r\n\r\n    // Withdraw tokens from BSC to Ethereum\r\n    function withdraw(address recipient, uint256 amount) public {\r\n        require(msg.sender == owner, \"Only owner can withdraw\");\r\n        require(token.transfer(recipient, amount), \"Transfer failed\");\r\n    }\r\n}\r\n",
  "sourcePath": "E:\\BCDV4028-Assingnment1\\contracts\\oneBridgeContract.sol",
  "compiler": {
    "name": "solc",
    "version": "0.8.21+commit.d9974bed.Emscripten.clang"
  },
  "schemaVersion": "3.4.16",
  "updatedAt": "2023-10-03T05:25:29.981Z",
  "devdoc": {
    "kind": "dev",
    "methods": {},
    "version": 1
  },
  "userdoc": {
    "kind": "user",
    "methods": {},
    "version": 1
  }
}